:100000000C942A000C9447000C9447000C94470071
:100010000C9447000C9447000C9447000C94470044
:100020000C9447000C9447000C9447000C94470034
:100030000C9447000C9447000C9447000C94470024
:100040000C9447000C9447000C9447000C94470014
:100050000C94470011241FBECFE5D4E0DEBFCDBF16
:1000600010E0A0E6B0E0ECECF2E002C005900D92EA
:10007000A237B107D9F710E0A2E7B0E001C01D92A6
:10008000A237B107E1F70E9436010C9464010C9489
:100090000000662311F0A89A01C0A898A998A49A14
:1000A000A59AA69AA79AAF98AE98AD98AC9887FDF6
:1000B000AF9A86FDAE9A85FDAD9A84FDAC9AAA9A58
:1000C00000C0AA98AF98AE98AD98AC9883FDAF9A4F
:1000D00082FDAE9A81FDAD9A80FDAC9AAA9A00C0CD
:1000E000AA98AC9AAD9AAE9AAF9A0895882311F067
:1000F000A89A01C0A898A99AA498A598A698A79884
:10010000AA9A00C09C9B02C080E101C080E09D993A
:1001100080629E9980649F998068AA9800C0AA9A7C
:1001200000C09C9981609D9982609E9984609F998E
:100130008860AA98089580E00E94760087FDFBCF32
:1001400000C080E00E94760008951F93182F0E943F
:100150009B00812F60E00E9449001F9108951F932A
:10016000182F0E949B00812F61E00E9449001F917F
:100170000895662311F4805801C080540E94A500A0
:1001800008950E949B0090E0089581E00E94A500E0
:10019000089582E00E94A50008951F93182F0E94E1
:1001A0009B001A3049F4803410F080E001C080E4F4
:1001B00080580E94A50004C0812F61E00E94490080
:1001C0001F910895CF93DF93EC0102C00E94CD00F0
:1001D00089918823D9F7DF91CF910895CF93DF9349
:1001E000EC0102C00E94CD00FE012196849188237B
:1001F000C9F7DF91CF9108951F93182FA09AA19A64
:10020000A29AA49AA59AA69AA79A80EA9FE0019733
:10021000F1F7AD9AAC9AAA9A00C0AA9880EE94E041
:100220000197F1F7AA9A00C0AA9880E190E0FC013A
:100230003197F1F7AA9A00C0AA98FC013197F1F71B
:10024000AC98AA9A00C0AA980197F1F788E20E9498
:10025000A50088E00E94A5000E94C50086E00E94DB
:10026000A500812F0E94A5001F9108950F931F9351
:10027000CF93DF938CE00E94FC000CE211E080E65B
:1002800090E00E94E20084EF91E0F8013197F1F7ED
:100290000197D9F7C0E0D0E088E10E94A50088E886
:1002A00093E1F8013197F1F70197D9F72196CF3013
:1002B000D10591F70E94C50084EF91E0F8013197D4
:0C02C000F1F70197D9F7DBCFF894FFCFDE
:1002CC0020202048656C6C6F20576F726C64212065
:0202DC00200000
:00000001FF
