:100000000C942A000C9447000C9447000C94470071
:100010000C9447000C9447000C9447000C94470044
:100020000C9447000C9447000C9447000C94470034
:100030000C9447000C9447000C9447000C94470024
:100040000C9447000C9447000C9447000C94470014
:100050000C94470011241FBECFE5D4E0DEBFCDBF16
:1000600011E0A0E6B0E0E0E4F4E002C005900D92FB
:10007000A833B107D9F711E0A8E3B1E001C01D92A0
:10008000A833B107E1F70E9450010C941E020C94B2
:100090000000662311F0A89A01C0A898A998A49A14
:1000A000A59AA69AA79AAF98AE98AD98AC9887FDF6
:1000B000AF9A86FDAE9A85FDAD9A84FDAC9AAA9A58
:1000C00000C0AA98AF98AE98AD98AC9883FDAF9A4F
:1000D00082FDAE9A81FDAD9A80FDAC9AAA9A00C0CD
:1000E000AA98AC9AAD9AAE9AAF9A0895882311F067
:1000F000A89A01C0A898A99AA498A598A698A79884
:10010000AA9A00C09C9B02C080E101C080E09D993A
:1001100080629E9980649F998068AA9800C0AA9A7C
:1001200000C09C9981609D9982609E9984609F998E
:100130008860AA98089580E00E94760087FDFBCF32
:1001400000C080E00E94760008951F93182F0E943F
:100150009B00812F60E00E9449001F9108951F932A
:10016000182F0E949B00812F61E00E9449001F917F
:100170000895662311F4805801C080540E94A500A0
:1001800008950E949B0090E0089581E00E94A500E0
:10019000089582E00E94A50008951F93182F0E94E1
:1001A0009B001A3049F4803410F080E001C080E4F4
:1001B00080580E94A50004C0812F61E00E94490080
:1001C0001F910895CF93DF93EC0102C00E94CD00F0
:1001D00089918823D9F7DF91CF910895CF93DF9349
:1001E000EC0102C00E94CD00FE012196849188237B
:1001F000C9F7DF91CF9108951F93182FA09AA19A64
:10020000A29AA49AA59AA69AA79A80EA9FE0019733
:10021000F1F7AD9AAC9AAA9A00C0AA9880EE94E041
:100220000197F1F7AA9A00C0AA9880E190E0FC013A
:100230003197F1F7AA9A00C0AA98FC013197F1F71B
:10024000AC98AA9A00C0AA980197F1F788E20E9498
:10025000A50088E00E94A5000E94C50086E00E94DB
:10026000A500812F0E94A5001F91089589B910BC97
:1002700080B5866880BD88E18AB908955F9BFECF0E
:100280008CB108955D9BFECF8CB90895FC0104C02C
:100290005D9BFECF8CB9319680818823C9F7089584
:1002A000DF92EF92FF920F931F938FE187BB8DE454
:1002B00089B910BC80B5866880BD88E18AB98CE0B8
:1002C0000E94FC0080E060E00E94B90080E690E0BF
:1002D0000E94E20085E061E00E94B90081E790E0C1
:1002E0000E94E20088EE93E02CE231E0F9013197C0
:1002F000F1F70197D9F700E129E0E22E98E0D92E35
:1003000086E0F82E5F9BFECF1CB108BB0E94C500A3
:1003100080E060E00E94B90087E790E00E94E20080
:100320008AE060E00E94B900812F0E94CD0017355D
:1003300011F0173799F4E7E8F0E004C05D9BFECFB9
:100340008CB9319680818823C9F761E00E94B90099
:1003500082E990E00E94E200E8BAD4CF113411F0B3
:100360001136A1F4E2EAF0E004C05D9BFECF8CB947
:10037000319680818823C9F761E00E94B9008FEA35
:1003800090E00E94E20081E088BBBCCF143411F001
:10039000143699F4EEEBF0E004C05D9BFECF8CB90F
:1003A000319680818823C9F761E00E94B9008CEC06
:1003B00090E00E94E200D8BAA5CF183511F01837A6
:1003C00099F4ECEDF0E004C05D9BFECF8CB9319662
:1003D00080818823C9F761E00E94B90088EE90E02F
:1003E0000E94E200F8BA8ECF133529F0133719F0C6
:1003F000EBEFF0E017C0E3E1F1E004C05D9BFECF5E
:100400008CB9319680818823C9F761E00E94B900D8
:100410008BE191E00E94E20018BA74CF5D9BFECFA1
:100420008CB9319680818823C9F761E00E94B900B8
:1004300085E291E00E94E20008BB64CFF894FFCF10
:100440004B6579626F61726420436F6E74726F6C7A
:1004500000526F626F740052656369766564203A7A
:100460002020202020200020466F72776172640ACD
:100470000D004D6F766520466F72776172642020A3
:100480002000204C656674205475726E0A0D0020A1
:100490004C656674205475726E2020202000205216
:1004A00069676874205475726E0A0D005269676836
:1004B00074205475726E2020202020002042616339
:1004C0006B776172640A0D004D6F7665204261633F
:1004D0006B77617264202020202000536F72727944
:1004E00021212020496E76616C6964204461746129
:1004F0000A0D002053746F700A0D0053746F702042
:100500002020202000496E76616C6964204461746B
:080510006120212120202000C0
:00000001FF
