:100000000C942A000C9447000C9447000C94470071
:100010000C9447000C9447000C9447000C94470044
:100020000C9447000C9447000C9447000C94470034
:100030000C9447000C9447000C9447000C94470024
:100040000C9447000C9447000C9447000C94470014
:100050000C94470011241FBECFE5D4E0DEBFCDBF16
:1000600011E0A0E6B0E0E4EDF3E002C005900D92EF
:10007000A033B107D9F711E0A0E3B1E001C01D92B0
:10008000A033B107E1F70E9450010C94E8010C94F1
:100090000000662311F0A89A01C0A898A998A49A14
:1000A000A59AA69AA79AAF98AE98AD98AC9887FDF6
:1000B000AF9A86FDAE9A85FDAD9A84FDAC9AAA9A58
:1000C00000C0AA98AF98AE98AD98AC9883FDAF9A4F
:1000D00082FDAE9A81FDAD9A80FDAC9AAA9A00C0CD
:1000E000AA98AC9AAD9AAE9AAF9A0895882311F067
:1000F000A89A01C0A898A99AA498A598A698A79884
:10010000AA9A00C09C9B02C080E101C080E09D993A
:1001100080629E9980649F998068AA9800C0AA9A7C
:1001200000C09C9981609D9982609E9984609F998E
:100130008860AA98089580E00E94760087FDFBCF32
:1001400000C080E00E94760008951F93182F0E943F
:100150009B00812F60E00E9449001F9108951F932A
:10016000182F0E949B00812F61E00E9449001F917F
:100170000895662311F4805801C080540E94A500A0
:1001800008950E949B0090E0089581E00E94A500E0
:10019000089582E00E94A50008951F93182F0E94E1
:1001A0009B001A3049F4803410F080E001C080E4F4
:1001B00080580E94A50004C0812F61E00E94490080
:1001C0001F910895CF93DF93EC0102C00E94CD00F0
:1001D00089918823D9F7DF91CF910895CF93DF9349
:1001E000EC0102C00E94CD00FE012196849188237B
:1001F000C9F7DF91CF9108951F93182FA09AA19A64
:10020000A29AA49AA59AA69AA79A80EA9FE0019733
:10021000F1F7AD9AAC9AAA9A00C0AA9880EE94E041
:100220000197F1F7AA9A00C0AA9880E190E0FC013A
:100230003197F1F7AA9A00C0AA98FC013197F1F71B
:10024000AC98AA9A00C0AA980197F1F788E20E9498
:10025000A50088E00E94A5000E94C50086E00E94DB
:10026000A500812F0E94A5001F91089589B910BC97
:1002700080B5866880BD88E18AB908955F9BFECF0E
:100280008CB108955D9BFECF8CB90895FC0104C02C
:100290005D9BFECF8CB9319680818823C9F7089584
:1002A0000F931F93CF93DF9380E187BB8DE489B9D0
:1002B00010BC80B5866880BD88E18AB98CE00E9458
:1002C000FC0080E060E00E94B90080E690E00E94BF
:1002D000E20080E061E00E94B90080E790E00E94C7
:1002E000E20088EE93E02CE231E0F9013197F1F77A
:1002F0000197D9F700E1CCE2D1E05F9BFECF1CB1C2
:1003000008BB0E94C50080E060E00E94B90080E860
:1003100090E00E94E2008AE060E00E94B900812F34
:100320000E94CD00113411F0113681F4E0E9F0E0C3
:1003300004C05D9BFECF8CB9319680818823C9F7BC
:1003400061E00E94B9008FE990E037C0123411F0EB
:10035000123681F4EFEAF0E004C05D9BFECF8CB969
:10036000319680818823C9F761E00E94B9008FEB44
:1003700090E023C0143529F0143719F0EFECF0E0C9
:1003800014C0E9EEF0E004C05D9BFECF8CB931965D
:1003900080818823C9F761E00E94B90089E091E07B
:1003A0000CC05D9BFECF8CB9319680818823C9F744
:1003B00061E00E94B9008CE191E00E94E20088EEC9
:1003C00093E0FE013197F1F70197D9F718BA95CF6D
:0403D000F894FFCFCF
:1003D40053797374656D2069732052656164790083
:1003E400202053656E642020446174612020200025
:1003F40052656369766564203A202020202020001D
:10040400200A0D4120666F72204170706C650020D7
:100414004120666F72204170706C6520202000209E
:100424000A0D4220666F722042616C6C202000200D
:100434004220666F722042616C6C202020200020D4
:100444000A0D536F72727921212020496E76616CF6
:100454006964204461746120000A0D5477696E6BED
:100464006C65205477696E6B6C65206C6974746C70
:100474006520537461722020005477696E6B6C653B
:10048400202053746172202020202000496E766160
:100494006C696420446174612021212020200000C3
:00000001FF
