:100000000C942A000C9447000C9447000C94470071
:100010000C9447000C9447000C9447000C94470044
:100020000C9447000C9447000C9447000C94470034
:100030000C9447000C9447000C9447000C94470024
:100040000C9447000C9447000C9447000C94470014
:100050000C94470011241FBECFE5D4E0DEBFCDBF16
:1000600010E0A0E6B0E0E8EEF0E002C005900D92EE
:10007000A036B107D9F710E0A0E6B0E001C01D92AC
:10008000A036B107E1F70E9449000C9472000C946D
:1000900000008FE087BB11BA81E090E049E029E1E0
:1000A00030E002C081E090E0869B0FC08130910576
:1000B00061F448BB8699FECF8FEF9FEFF90131972E
:1000C000F1F70197D9F780E090E0869BEDCF00979C
:1000D00059F718BA8FEF9FEFF9013197F1F70197B0
:0800E000D9F7E0CFF894FFCF3F
:00000001FF
