:100000000C942A000C9447000C9447000C94470071
:100010000C9447000C9447000C9447000C94470044
:100020000C9447000C9447000C9447000C94470034
:100030000C9447000C9447000C9447000C94470024
:100040000C9447000C9447000C9447000C94470014
:100050000C94470011241FBECFE5D4E0DEBFCDBF16
:1000600010E0A0E6B0E0E8EEF0E002C005900D92EE
:10007000A036B107D9F710E0A0E6B0E001C01D92AC
:10008000A036B107E1F70E9449000C9472000C946D
:1000900000001ABA8FEF87BBE1E079E068E089B32E
:1000A00090E029B330E020723070AC0140715070A4
:1000B00084FD05C02115310551F418BA0CC040313A
:1000C000510549F42032310531F478BB04C02032A7
:1000D000310509F4E8BB4031510509F7232BF9F646
:0800E00068BBDDCFF894FFCFEF
:00000001FF
