:100000000C942A000C9447000C9447000C94470071
:100010000C9447000C9447000C9447000C94470044
:100020000C9447000C9447000C9447000C94470034
:100030000C9447000C9447000C9447000C94470024
:100040000C9447000C9447000C9447000C94470014
:100050000C94470011241FBECFE5D4E0DEBFCDBF16
:1000600010E0A0E6B0E0EAE9F8E002C005900D92E9
:10007000AA37B107D9F710E0AAE7B0E001C01D9296
:10008000AA37B107E1F70E944B010C944B040C9482
:100090000000662311F0A89A01C0A898A998A49A14
:1000A000A59AA69AA79AAF98AE98AD98AC9887FDF6
:1000B000AF9A86FDAE9A85FDAD9A84FDAC9AAA9A58
:1000C00000C0AA98AF98AE98AD98AC9883FDAF9A4F
:1000D00082FDAE9A81FDAD9A80FDAC9AAA9A00C0CD
:1000E000AA98AC9AAD9AAE9AAF9A0895882311F067
:1000F000A89A01C0A898A99AA498A598A698A79884
:10010000AA9A00C09C9B02C080E101C080E09D993A
:1001100080629E9980649F998068AA9800C0AA9A7C
:1001200000C09C9981609D9982609E9984609F998E
:100130008860AA98089580E00E94760087FDFBCF32
:1001400000C080E00E94760008951F93182F0E943F
:100150009B00812F60E00E9449001F9108951F932A
:10016000182F0E949B00812F61E00E9449001F917F
:100170000895662311F4805801C080540E94A500A0
:1001800008950E949B0090E0089581E00E94A500E0
:10019000089582E00E94A50008951F93182F0E94E1
:1001A0009B001A3049F4803410F080E001C080E4F4
:1001B00080580E94A50004C0812F61E00E94490080
:1001C0001F910895CF93DF93EC0102C00E94CD00F0
:1001D00089918823D9F7DF91CF910895CF93DF9349
:1001E000EC0102C00E94CD00FE012196849188237B
:1001F000C9F7DF91CF9108951F93182FA09AA19A64
:10020000A29AA49AA59AA69AA79A80EA9FE0019733
:10021000F1F7AD9AAC9AAA9A00C0AA9880EE94E041
:100220000197F1F7AA9A00C0AA9880E190E0FC013A
:100230003197F1F7AA9A00C0AA98FC013197F1F71B
:10024000AC98AA9A00C0AA980197F1F788E20E9498
:10025000A50088E00E94A5000E94C50086E00E94DB
:10026000A500812F0E94A5001F91089520E030EC89
:1002700042EA54E40E9479010E94730220E030E0D7
:1002800080E005C0482F4A95F1F72F5F3F4F2617B2
:100290003707C4F308951F938CE00E94FC0010E020
:1002A0000E94C50082E060E00E94B90080E690E014
:1002B0000E94E20080E090E0212F2A95F1F701965C
:1002C00029E18E369207C1F70E94C50085E061E002
:1002D0000E94B9008CE690E00E94E20080E090E08D
:1002E000212F2A95F1F7019629E18E369207C1F761
:1002F000D7CFA0E2B0E0EFE7F1E00C9414046983FB
:100300007A838B839C832D833E834F835887CE01D2
:100310000196BE01675F7F4F0E949C03CE01059648
:10032000BE016F5E7F4F0E949C039985923088F0DA
:1003300089898230C8F0943019F4823051F404C0B5
:10034000843029F4923081F482E790E0C6C0923084
:1003500049F420E09A858A89981321E02A87CE0102
:100360000996BBC0823049F420E09A858A899813A7
:1003700021E02A8BCE014196B0C02D843E844F846B
:1003800058886D887E888F88988CEE24FF2487019A
:10039000AA24BB24650140E050E060E070E0E0E0AA
:1003A000F0E0C10181709070892BE9F0E60CF71C38
:1003B000081D191D9A01AB012A0D3B1D4C1D5D1D29
:1003C00080E090E0A0E0B0E0E614F704080519052D
:1003D00020F481E090E0A0E0B0E0BA01A901480F6C
:1003E000591F6A1F7B1FAA0CBB1CCC1CDD1C97FE6F
:1003F00008C081E090E0A0E0B0E0A82AB92ACA2AAB
:10040000DB2A3196E032F10549F0660C771C881C36
:10041000991C5694479437942794C3CFFA85EA8958
:100420002B893C898B859C85280F391F2E5F3F4F78
:1004300017C0CA0181709070892B61F016950795DD
:10044000F794E79480E090E0A0E0B0E8E82AF92A89
:100450000A2B1B2B76956795579547952F5F3F4F36
:1004600077FDE7CF0CC0440F551F661F771F17FDA0
:100470004160EE0CFF1C001F111F21503040403026
:1004800090E0590790E0690790E4790760F32B8FBB
:100490003C8FDB01CA018F779070A070B070803400
:1004A0009105A105B10561F447FD0AC0E114F1040D
:1004B0000105110529F0405C5F4F6F4F7F4F407879
:1004C0001A8EFE1711F081E08A8F4D8F5E8F6F8F2D
:1004D00078A383E0898FCE0149960E94C702A09637
:1004E000E2E10C943004ACE0B0E0E9E7F2E00C9417
:1004F000240469837A838B839C83CE010196BE0199
:100500006B5F7F4F0E949C038D81823061F182304E
:1005100050F1843021F48E81882351F12EC02F8137
:10052000388537FD20C06E812F3131051CF06623E0
:10053000F9F023C08EE190E0821B930B29853A8568
:100540004B855C8504C056954795379527958A95C8
:10055000D2F76623B1F050954095309521953F4FE5
:100560004F4F5F4F0EC020E030E040E050E009C048
:100570002FEF3FEF4FEF5FE704C020E030E040E0B7
:1005800050E8B901CA012C96E2E00C944004DF92D5
:10059000EF92FF920F931F93FC01E480F580068198
:1005A0001781D1808081823048F480E090E0A0E122
:1005B000B0E0E82AF92A0A2B1B2BA5C0843009F4E5
:1005C0009FC0823021F4EE24FF24870105C0E1148E
:1005D000F1040105110519F4E0E0F0E096C0628134
:1005E00073819FEF623879070CF05BC022E83FEF20
:1005F000261B370B2A3131052CF020E030E040E09B
:1006000050E02AC0B801A701022E04C07695679574
:10061000579547950A94D2F781E090E0A0E0B0E0CA
:1006200004C0880F991FAA1FBB1F2A95D2F70197F4
:10063000A109B1098E219F21A023B1230097A10513
:10064000B10521F081E090E0A0E0B0E09A01AB01BB
:10065000282B392B4A2B5B2BDA01C9018F7790703D
:10066000A070B07080349105A105B10539F427FF61
:1006700009C0205C3F4F4F4F5F4F04C0215C3F4F8C
:100680004F4F5F4FE0E0F0E02030A0E03A07A0E0FD
:100690004A07A0E45A0710F0E1E0F0E079018A018E
:1006A00027C06038710564F5FB01E158FF4FD801A0
:1006B000C7018F779070A070B07080349105A1054C
:1006C000B10539F4E7FE0DC080E490E0A0E0B0E0B1
:1006D00004C08FE390E0A0E0B0E0E80EF91E0A1F2E
:1006E0001B1F17FF05C016950795F794E7943196E1
:1006F00087E016950795F794E7948A95D1F705C09A
:10070000EE24FF248701EFEFF0E06E2F6795662758
:100710006795902F9F77D794DD24D7948E2F869559
:10072000492F462B582F5D29B701CA011F910F9100
:10073000FF90EF90DF900895FC01DB014081518133
:100740002281622F6F7770E0221F2227221F938160
:10075000892F880F822B282F30E0991F9927991F06
:1007600011969C93119721153105A9F54115510555
:100770006105710511F482E037C082E89FEF13969E
:100780009C938E9312979A01AB0167E0220F331F5F
:10079000441F551F6A95D1F783E08C930DC0220F3B
:1007A000331F441F551F12968D919C9113970197EB
:1007B00013969C938E931297203080E0380780E048
:1007C000480780E4580758F314962D933D934D93B2
:1007D0005C93179708952F3F310579F44115510522
:1007E0006105710519F484E08C93089564FF03C0DA
:1007F00081E08C9312C01C9210C02F57304013968A
:100800003C932E93129783E08C9387E0440F551FFF
:10081000661F771F8A95D1F7706414964D935D9388
:100820006D937C93179708952F923F924F925F920A
:100830006F927F928F929F92AF92BF92CF92DF92F0
:10084000EF92FF920F931F93CF93DF93CDB7DEB755
:10085000CA1BDB0B0FB6F894DEBF0FBECDBF0994E9
:100860002A88398848885F846E847D848C849B8440
:10087000AA84B984C884DF80EE80FD800C811B814E
:10088000AA81B981CE0FD11D0FB6F894DEBF0FBE7D
:0A089000CDBFED010895F894FFCFED
:10089A00526F626F73617069656E7300496E646945
:0A08AA0061000000000000000000E3
:00000001FF
