:100000000C942A000C9447000C9447000C94470071
:100010000C9447000C9447000C9447000C94470044
:100020000C9447000C9447000C9447000C94470034
:100030000C9447000C9447000C9447000C94470024
:100040000C9447000C9447000C9447000C94470014
:100050000C94470011241FBECFE5D4E0DEBFCDBF16
:1000600010E0A0E6B0E0EEE3F1E002C005900D92F2
:10007000A036B107D9F710E0A0E6B0E001C01D92AC
:10008000A036B107E1F70E9449000C949D000C9442
:1000900000008FE087BB79E029E130E066E051E0C5
:1000A00048E078BB80E197E2F9013197F1F70197D9
:1000B000D9F780E197E2F9013197F1F70197D9F784
:1000C00068BB80E197E2F9013197F1F70197D9F721
:1000D00080E197E2F9013197F1F70197D9F758BB21
:1000E00080E197E2F9013197F1F70197D9F780E1C3
:1000F00097E2F9013197F1F70197D9F748BB80E111
:1001000097E2F9013197F1F70197D9F780E197E28A
:10011000F9013197F1F70197D9F718BA80E197E221
:10012000F9013197F1F70197D9F780E197E2F901E9
:0E0130003197F1F70197D9F7B4CFF894FFCFCC
:00000001FF
