:100000000C942A000C9447000C9447000C94470071
:100010000C9447000C9447000C9447000C94470044
:100020000C9447000C9447000C9447000C94470034
:100030000C9447000C9447000C9447000C94470024
:100040000C9447000C9447000C9447000C94470014
:100050000C94470011241FBECFE5D4E0DEBFCDBF16
:1000600010E0A0E6B0E0E2EFF0E002C005900D92F3
:10007000A036B107D9F710E0A0E6B0E001C01D92AC
:10008000A036B107E1F70E9449000C9477000C9468
:1000900000008FE087BBA1E0FAE0E5E078E069E0EE
:1000A00090B380B3282F30E02270307090FD0DC0E7
:1000B0002115310579F44130510511F4E8BBF0CF39
:1000C0004230510569F7F8BBEBCF2230310549F4D6
:1000D00068BBE6CF2230310519F7A8BB41E050E0FC
:1000E000DFCF232BE9F678BB42E050E0D9CFF8947C
:0200F000FFCF40
:00000001FF
