:100000000C942A000C9447000C9447000C94470071
:100010000C9447000C9447000C9447000C94470044
:100020000C9447000C9447000C9447000C94470034
:100030000C9447000C9447000C9447000C94470024
:100040000C9447000C9447000C9447000C94470014
:100050000C94470011241FBECFE5D4E0DEBFCDBF16
:1000600010E0A0E6B0E0EAE4F3E002C005900D92F3
:10007000A43AB107D9F710E0A4EAB0E001C01D929C
:10008000A43AB107E1F70E9446010C94A3010C9435
:100090000000662311F0A89A01C0A898A998A49A14
:1000A000A59AA69AA79AAF98AE98AD98AC9887FDF6
:1000B000AF9A86FDAE9A85FDAD9A84FDAC9AAA9A58
:1000C00000C0AA98AF98AE98AD98AC9883FDAF9A4F
:1000D00082FDAE9A81FDAD9A80FDAC9AAA9A00C0CD
:1000E000AA98AC9AAD9AAE9AAF9A0895882311F067
:1000F000A89A01C0A898A99AA498A598A698A79884
:10010000AA9A00C09C9B02C080E101C080E09D993A
:1001100080629E9980649F998068AA9800C0AA9A7C
:1001200000C09C9981609D9982609E9984609F998E
:100130008860AA98089580E00E94760087FDFBCF32
:1001400000C080E00E94760008951F93182F0E943F
:100150009B00812F60E00E9449001F9108951F932A
:10016000182F0E949B00812F61E00E9449001F917F
:100170000895662311F4805801C080540E94A500A0
:1001800008950E949B0090E0089581E00E94A500E0
:10019000089582E00E94A50008951F93182F0E94E1
:1001A0009B001A3049F4803410F080E001C080E4F4
:1001B00080580E94A50004C0812F61E00E94490080
:1001C0001F910895CF93DF93EC0102C00E94CD00F0
:1001D00089918823D9F7DF91CF910895CF93DF9349
:1001E000EC0102C00E94CD00FE012196849188237B
:1001F000C9F7DF91CF9108951F93182FA09AA19A64
:10020000A29AA49AA59AA69AA79A80EA9FE0019733
:10021000F1F7AD9AAC9AAA9A00C0AA9880EE94E041
:100220000197F1F7AA9A00C0AA9880E190E0FC013A
:100230003197F1F7AA9A00C0AA98FC013197F1F71B
:10024000AC98AA9A00C0AA980197F1F788E20E9498
:10025000A50088E00E94A5000E94C50086E00E94DB
:10026000A500812F0E94A5001F91089589B910BC97
:1002700080B5866880BD88E18AB908955F9BFECF0E
:100280008CB108955D9BFECF8CB908950F931F9399
:10029000CF93DF9380E187BB8DE489B910BC80B533
:1002A000866880BD88E18AB98CE00E94FC0080E00D
:1002B00060E00E94B90080E690E00E94E20080E0E9
:1002C00061E00E94B90080E790E00E94E20088EEC1
:1002D00093E02CE231E0F9013197F1F70197D9F77A
:1002E00000E1CCE2D1E05F9BFECF1CB108BB0E94D5
:1002F000C50080E060E00E94B90080E890E00E94C4
:10030000E2008AE060E00E94B900812F0E94CD00E7
:100310005D9BFECF1CB980E061E00E94B90080E9DE
:1003200090E00E94E2008DE061E00E94B900812F20
:100330000E94CD0088EE93E0FE013197F1F701971E
:0A034000D9F718BAD0CFF894FFCF18
:10034A0053797374656D206973205265616479000D
:10035A00202053656E6420204461746120202000AF
:10036A0052656369766564203A20202020202000A7
:10037A005472616E736D69747465643A202020202A
:04038A00202000002F
:00000001FF
