:100000000C942A000C9447000C9447000C94470071
:100010000C9447000C9447000C9447000C94470044
:100020000C9447000C9447000C9447000C94470034
:100030000C9447000C9447000C9447000C94470024
:100040000C9447000C9447000C9447000C94470014
:100050000C94470011241FBECFE5D4E0DEBFCDBF16
:1000600010E0A0E6B0E0ECE9F8E002C005900D92E7
:10007000A637B107D9F710E0A6E7B0E001C01D929E
:10008000AC37B107E1F70E945F000C944C040C946C
:10009000000020E030E048E352E40E947A010E9430
:1000A000740220E030E080E090E005C0FC01319770
:1000B000F1F72F5F3F4F26173707C4F308952F92AC
:1000C0003F924F925F926F927F928F929F92AF92E8
:1000D000BF92CF92DF92EF92FF920F931F93DF9325
:1000E000CF93CDB7DEB729970FB6F894DEBF0FBE1A
:1000F000CDBF8FEF87BB1ABA209176003091770081
:100100003F832E8380917800909179009D838C832A
:10011000E0916C00F0916D00FB83EA8320907A00FF
:1001200030907B00F0916400F98340906A00509019
:100130006B00A090600090906200609068007090EA
:10014000690080906600EE24FF2489B3282F30E0F8
:10015000227030703987288789B3682F70E0647007
:10016000707089B3482F50E048705070BB248E8166
:100170009F816817790711F4BB24B39410E0E885D8
:10018000F9852C813D81E217F30709F411E08B2DED
:100190008123282F30E0CC24DD248A819B814817DD
:1001A000590719F481E0C82ED12CC9018C219D2159
:1001B000892BA1F0A8BA80E090E0F7013197F1F720
:1001C00001968E329105C9F798BA80E090E0F70168
:1001D0003197F1F7019687319105C9F7A0E0B0E0BA
:1001E0004215530511F4A1E0B0E02A233B23232B51
:1001F00011F0998198BB00E06415750509F401E0E0
:100200001023412F50E0CA018A239B23892BA1F0A0
:10021000A8BA80E090E0F7013197F1F701968E32AD
:100220009105C9F798BA80E090E0F7013197F1F7AE
:10023000019687319105C9F760E0E885F985E615F3
:10024000F70509F461E0B6222B2D30E0C9018A23BD
:100250009B23892BA1F0A8BA80E090E0F7013197A9
:10026000F1F701968E329105C9F788BA80E090E0E7
:10027000F7013197F1F7019687319105C9F72C21E4
:100280003D21232BA1F0A8BA80E090E0F70131973F
:10029000F1F701968E329105C9F788BA80E090E0B7
:1002A000F7013197F1F7019687319105C9F70623D8
:1002B000802F90E08A239B23892B11F0F981F8BBD2
:1002C0004C215D21452B09F440CFA8BA80E090E095
:1002D000F7013197F1F701968E329105C9F798BA77
:1002E00080E090E0F7013197F1F7019687319105B1
:1002F000C9F72BCFA0E2B0E0E0E8F1E00C941504E0
:1003000069837A838B839C832D833E834F835887B5
:10031000CE010196BE01675F7F4F0E949D03CE0113
:100320000596BE016F5E7F4F0E949D0399859230B6
:1003300088F089898230C8F0943019F4823051F401
:1003400004C0843029F4923081F48EE690E0C6C077
:10035000923049F420E09A858A89981321E02A870F
:10036000CE010996BBC0823049F420E09A858A8983
:10037000981321E02A8BCE014196B0C02D843E8493
:100380004F8458886D887E888F88988CEE24FF244F
:100390008701AA24BB24650140E050E060E070E0E2
:1003A000E0E0F0E0C10181709070892BE9F0E60C8B
:1003B000F71C081D191D9A01AB012A0D3B1D4C1D90
:1003C0005D1D80E090E0A0E0B0E0E614F7040805D1
:1003D000190520F481E090E0A0E0B0E0BA01A901A5
:1003E000480F591F6A1F7B1FAA0CBB1CCC1CDD1CAD
:1003F00097FE08C081E090E0A0E0B0E0A82AB92A0A
:10040000CA2ADB2A3196E032F10549F0660C771CE6
:10041000881C991C5694479437942794C3CFFA8527
:10042000EA892B893C898B859C85280F391F2E5F93
:100430003F4F17C0CA0181709070892B61F01695EB
:100440000795F794E79480E090E0A0E0B0E8E82A10
:10045000F92A0A2B1B2B76956795579547952F5FA1
:100460003F4F77FDE7CF0CC0440F551F661F771F26
:1004700017FD4160EE0CFF1C001F111F2150304082
:10048000403090E0590790E0690790E4790760F305
:100490002B8F3C8FDB01CA018F779070A070B070FA
:1004A00080349105A105B10561F447FD0AC0E1144E
:1004B000F1040105110529F0405C5F4F6F4F7F4F3C
:1004C00040781A8EFE1711F081E08A8F4D8F5E8F73
:1004D0006F8F78A383E0898FCE0149960E94C8026E
:1004E000A096E2E10C943104ACE0B0E0EAE7F2E07F
:1004F0000C94250469837A838B839C83CE010196B7
:10050000BE016B5F7F4F0E949D038D81823061F140
:10051000823050F1843021F48E81882351F12EC035
:100520002F81388537FD20C06E812F3131051CF0B9
:100530006623F9F023C08EE190E0821B930B29859E
:100540003A854B855C8504C0569547953795279528
:100550008A95D2F76623B1F0509540953095219554
:100560003F4F4F4F5F4F0EC020E030E040E050E083
:1005700009C02FEF3FEF4FEF5FE704C020E030E00E
:1005800040E050E8B901CA012C96E2E00C94410425
:10059000DF92EF92FF920F931F93FC01E480F580AE
:1005A00006811781D1808081823048F480E090E01C
:1005B000A0E1B0E0E82AF92A0A2B1B2BA5C0843061
:1005C00009F49FC0823021F4EE24FF24870105C086
:1005D000E114F1040105110519F4E0E0F0E096C022
:1005E000628173819FEF623879070CF05BC022E86B
:1005F0003FEF261B370B2A3131052CF020E030E08D
:1006000040E050E02AC0B801A701022E04C0769550
:100610006795579547950A94D2F781E090E0A0E05E
:10062000B0E004C0880F991FAA1FBB1F2A95D2F7FC
:100630000197A109B1098E219F21A023B123009721
:10064000A105B10521F081E090E0A0E0B0E09A01C1
:10065000AB01282B392B4A2B5B2BDA01C9018F7791
:100660009070A070B07080349105A105B10539F487
:1006700027FF09C0205C3F4F4F4F5F4F04C0215CF4
:100680003F4F4F4F5F4FE0E0F0E02030A0E03A07EF
:10069000A0E04A07A0E45A0710F0E1E0F0E0790199
:1006A0008A0127C06038710564F5FB01E158FF4FEE
:1006B000D801C7018F779070A070B0708034910519
:1006C000A105B10539F4E7FE0DC080E490E0A0E09B
:1006D000B0E004C08FE390E0A0E0B0E0E80EF91EC7
:1006E0000A1F1B1F17FF05C016950795F794E7947F
:1006F000319687E016950795F794E7948A95D1F798
:1007000005C0EE24FF248701EFEFF0E06E2F679520
:1007100066276795902F9F77D794DD24D7948E2FE7
:100720008695492F462B582F5D29B701CA011F9185
:100730000F91FF90EF90DF900895FC01DB01408165
:1007400051812281622F6F7770E0221F2227221FA2
:100750009381892F880F822B282F30E0991F9927AA
:10076000991F11969C93119721153105A9F54115F3
:1007700051056105710511F482E037C082E89FEFF1
:1007800013969C938E9312979A01AB0167E0220F08
:10079000331F441F551F6A95D1F783E08C930DC01A
:1007A000220F331F441F551F12968D919C91139752
:1007B000019713969C938E931297203080E0380710
:1007C00080E0480780E4580758F314962D933D9332
:1007D0004D935C93179708952F3F310579F4411598
:1007E00051056105710519F484E08C93089564FF47
:1007F00003C081E08C9312C01C9210C02F57304070
:1008000013963C932E93129783E08C9387E0440FCA
:10081000551F661F771F8A95D1F7706414964D9304
:100820005D936D937C93179708952F923F924F920B
:100830005F926F927F928F929F92AF92BF92CF9270
:10084000DF92EF92FF920F931F93CF93DF93CDB779
:10085000DEB7CA1BDB0B0FB6F894DEBF0FBECDBFF1
:1008600009942A88398848885F846E847D848C84C2
:100870009B84AA84B984C884DF80EE80FD800C81CB
:100880001B81AA81B981CE0FD11D0FB6F894DEBFAE
:0C0890000FBECDBFED010895F894FFCF1E
:10089C000600080009000100020004000800000026
:0608AC0000000000000046
:00000001FF
